:020000040000FA
:100000000C942F020C94BB080C9494080C94570287
:100010000C9457020C9457020C9457020C945702FC
:100020000C9457020C9457020C9457020C945702EC
:100030000C9457020C9457020C9457020C945702DC
:100040000C944A080C9457020C9408090C94E2088A
:100050000C9457020C9457020C9457020C945702BC
:100060000C9457020C9457022F2F204F722077695F
:100070007468207468652050432D746F2D47616D3E
:10008000652D426F792D5072696E7465722D696E9F
:10009000746572666163653A2068747470733A2F90
:1000A0002F6769746875622E636F6D2F5261706877
:1000B00061656C2D426F6963686F742F50432D74B6
:1000C0006F2D47616D652D426F792D5072696E7489
:1000D00065722D696E74657266616365002F2F20ED
:1000E00055736520776974682074686520474243BA
:1000F000616D6572612D416E64726F69642D4D6131
:100100006E616765723A2068747470733A2F2F6756
:1001100069746875622E636F6D2F4D7261756C69BD
:100120006F2F474243616D6572612D416E64726F3E
:1001300069642D4D616E61676572002F2F20474104
:100140004D4520424F59205052494E544552204966
:100150002F4F20494E54455246414345204D61643E
:1001600065204279205261706861C3AB6C20424FB8
:100170004943484F542C2032303233002F2F204136
:10018000207072696E74657220697320636F6E6E81
:10019000656374656420746F20746865207365728C
:1001A00069616C206361626C6520212121002F2F21
:1001B000202D2D2D002F2F20756E64657220636514
:1001C000727461696E20636F6E646974696F6E73B7
:1001D0002E20526566657220746F204C4943454E4F
:1001E00053452066696C6520666F72206465746192
:1001F000696C2E002F2F2054686973206973206664
:1002000072656520736F6674776172652C20616E0C
:100210006420796F75206172652077656C636F6DFE
:100220006520746F20726564697374726962757495
:1002300065206974002F2F20546869732070726FD5
:100240006772616D20636F6D6573207769746820D4
:100250004142534F4C5554454C59204E4F20574125
:100260005252414E54593B002F2F202D2D2D204707
:100270004E552047454E4552414C205055424C4921
:1002800043204C4943454E53452056657273696F70
:100290006E20332C203239204A756E652032303082
:1002A00037202D2D2D002F2F204A532052617720EB
:1002B0005061636B6574204465636F6465723A20B6
:1002C00068747470733A2F2F6D6F666F73796E65F3
:1002D0002E6769746875622E696F2F617264756923
:1002E0006E6F2D67616D65626F792D7072696E74C6
:1002F00065722D656D756C61746F722F47616D65E8
:10030000426F795072696E7465724465636F64659B
:10031000724A532F67616D65626F795F7072696EA3
:100320007465725F6A735F7261775F6465636F643F
:1003300065722E68746D6C002F2F202020202020E5
:100340002065786365707420666F7220746865201C
:100350006C6173742074776F206279746573207791
:10036000686963682069732066726F6D20746865C0
:10037000207072696E746572002F2F204E6F746545
:100380003A2045616368206279746520697320664C
:10039000726F6D2065616368204742502070616311
:1003A0006B65742069732066726F6D2074686520B8
:1003B00067616D65626F79002F2F2047414D45427F
:1003C0004F59205052494E544552205061636B653D
:1003D0007420436170747572652056332E322E314D
:1003E0002028436F70797269676874202843292038
:1003F0003230323220427269616E204B6875752945
:100400000000000000240027002A00000000002552
:100410000028002B00000000002300260029000413
:10042000040404040404040202020202020303039B
:100430000303030102040810204080010204081095
:100440002001020408102000000008000201000042
:10045000030407000000000000000000CF0C11247E
:100460001FBECFEFD8E0DEBFCDBF11E0A0E0B1E00E
:10047000E4E7FAE102C005900D92A238B107D9F77E
:1004800024E0A2E8B1E001C01D92AA3FB207E1F763
:1004900012E0CFE2D2E004C02197FE010E94320DAB
:1004A000CE32D107C9F70E945F090C94380D0C9425
:1004B00000004091D7045091D8042091D504309188
:1004C000D6044217530728F5E091D904F091DA04D5
:1004D0002091DB043091DC04E20FF31F80838091D4
:1004E000DB049091DC0401966091D5047091D604F0
:1004F0000E94FC0C9093DC048093DB048091D70471
:100500009091D80401969093D8048093D70481E009
:10051000089580E00895833081F028F4813099F0C7
:100520008230A9F008958730A9F08830C9F084306E
:10053000B1F4809180008F7D03C0809180008F771F
:1005400080938000089584B58F7784BD089584B525
:100550008F7DFBCF8091B0008F778093B00008959E
:100560008091B0008F7DF9CFCF93DF93EBE4F4E07F
:100570008491E7E3F4E0D491E3E2F4E0C491CC2386
:10058000A1F081110E948B02EC2FF0E0EE0FFF1F13
:10059000EB5EFB4FA591B491EC91ED2381E090E0EF
:1005A00009F480E0DF91CF91089580E090E0FACFE8
:1005B0001F93CF93DF93282F30E0F901E95BFB4FC6
:1005C0008491F901ED5CFB4FD491F901E15EFB4FA1
:1005D000C491CC23A9F0162F81110E948B02EC2F1D
:1005E000F0E0EE0FFF1FE55FFB4FA591B4918FB7D1
:1005F000F894EC91111108C0D095DE23DC938FBFE5
:10060000DF91CF911F910895DE2BF8CFCF93DF9329
:1006100090E0FC01ED5CFB4F2491815E9B4FFC015F
:1006200084918823C9F090E0880F991FFC01EF5F47
:10063000FB4FA591B491FC01E55FFB4FC591D491AF
:1006400061110DC09FB7F8948C91209582238C93F3
:100650008881282328839FBFDF91CF91089562303E
:1006600051F49FB7F8943C91822F809583238C930B
:10067000E8812E2BEFCF8FB7F894EC912E2B2C9393
:100680008FBFEACF0895AF92BF92CF92DF92EF92E1
:10069000FF920F931F93CF93DF936C017B018B012C
:1006A000040F151FEB015E01AE18BF08C017D1077C
:1006B00059F06991D601ED91FC910190F081E02D06
:1006C000C6010995892B79F7C501DF91CF911F915B
:1006D0000F91FF90EF90DF90CF90BF90AF90089573
:1006E000FC01538D448D252F30E0842F90E0821B38
:1006F000930B541710F0CF96089501970895FC01BD
:10070000918D828D981761F0A28DAE0FBF2FB11D14
:100710005D968C91928D9F5F9F73928F90E008956C
:100720008FEF9FEF0895FC01918D828D981731F026
:10073000828DE80FF11D858D90E008958FEF9FEF7A
:100740000895FC01918D228D892F90E0805C9F4F50
:10075000821B91098F739927089583E394E00E9487
:10076000A10321E0892B09F420E0822F089580E085
:1007700090E0892B29F00E94AD0381110C940000B8
:100780000895FC01A48DA80FB92FB11DA35ABF4F26
:100790002C91848D90E001968F739927848FA68980
:1007A000B7892C93A089B1898C91837080648C93D4
:1007B000938D848D981306C00288F389E02D808183
:1007C0008F7D80830895EF92FF920F931F93CF93B5
:1007D000DF93EC0181E0888F9B8D8C8D98131AC07C
:1007E000E889F989808185FF15C09FB7F894EE8963
:1007F000FF896083E889F9898081837080648083C0
:100800009FBF81E090E0DF91CF911F910F91FF900A
:10081000EF900895F62E0B8D10E00F5F1F4F0F73B2
:100820001127E02E8C8D8E110CC00FB607FCFACF6D
:10083000E889F989808185FFF5CFCE010E94C10347
:10084000F1CFEB8DEC0FFD2FF11DE35AFF4FF0823E
:100850009FB7F8940B8FEA89FB8980818062CFCFA4
:10086000CF93DF93EC01888D8823B9F0AA89BB89E7
:10087000E889F9898C9185FD03C0808186FD0DC0D2
:100880000FB607FCF7CF8C9185FFF2CF808185FFF3
:10089000EDCFCE010E94C103E9CFDF91CF91089542
:1008A000E2E8F1E01182118610861386128610822A
:1008B00015821482E0EDF4E080A191A1882791A334
:1008C00080A310861782148613861686158681E00B
:1008D00008950F931F930091D7041091D804011528
:1008E000110519F130E020E006171707280739072E
:1008F000E0F02091DD043091DE04620F731F811D52
:10090000911D2091D5043091D60450E040E00E9422
:10091000100D2091D9043091DA04C901860F971F78
:10092000FC0180811F910F91089580E0FBCF8091A1
:100930008801909189018230910559F083309105A9
:1009400069F0019799F480918A0190918B01992720
:10095000089580918A0190918B01089580918A0178
:1009600090918B01982789279827089590E080E03F
:100970000895FC0101900020E9F73197AF01481B71
:10098000590BBC0183E394E00C9443038F929F9234
:10099000AF92BF920F931F93CF93DF93CDB7DEB784
:1009A000A1970FB6F894DEBF0FBECDBF19A242309B
:1009B00008F44AE08E010F5D1F4F842E912CB12C5C
:1009C000A12CA50194010E94100DE62FB901CA01C6
:1009D000EA30F4F4E05DD801EE938D01232B242B53
:1009E000252B79F790E080E0109719F0CD010E9457
:1009F000B904A1960FB6F894DEBF0FBECDBFDF914C
:100A0000CF911F910F91BF90AF909F908F900895BD
:100A1000E95CE1CF0F931F93CF93DF938C01D0E07C
:100A2000C0E0F801EC0FFD1F6491662341F083E301
:100A300094E00E94E303892B11F02196F2CF80E22B
:100A400091E00E94B9048C0F9D1FDF91CF911F91FF
:100A50000F910895CF93DF930E94B904EC0180E2D7
:100A600091E00E94B9048C0F9D1FDF91CF910895F2
:100A70007F928F929F92AF92BF92CF92DF92EF922E
:100A8000FF920F931F93CF93DF93C0E007E010E036
:100A9000E82E880FFF0883E7C82ED12C812C912CDB
:100AA0005401839460E082E00E94D802B701002ED6
:100AB00002C0759567950A94E2F7D62FD1706D2F15
:100AC00083E00E94D8026D2F8DE00E94D802C601FB
:100AD0000197F1F761E082E00E94D8020E94B4021F
:100AE000B501A401002E04C0440F551F661F771FD7
:100AF0000A94D2F7892BB1F0C42BC6010197F1F704
:100B00000150110978F68C2FDF91CF911F910F9131
:100B1000FF90EF90DF90CF90BF90AF909F908F901D
:100B20007F9008954095C423E8CF0F931F93CF93F0
:100B3000DF930E94B4022091830121113EC021E085
:100B400030E0892B11F430E020E080918401909115
:100B50008501822B932B833328E8920771F0880F4D
:100B6000991F909385018093840160E083E0DF9179
:100B7000CF911F910F910C94D8021092E50410921E
:100B8000E404109285011092840181E08093830136
:100B900010928B0110928A0182E090E0909389017B
:100BA0008093880180E090E890938701809386018C
:100BB00010928D0110928C01D8CF20918601309136
:100BC00087012115310509F05DC08091E404909101
:100BD000E504892B31F488E80E94590283E30E94DE
:100BE000590280918801909189018130910509F421
:100BF00070C018F0049708F471C08091D7049091E8
:100C0000D8042091F8043091F9042817390720F40A
:100C10009093F9048093F80484EF91E0A0E0B0E0B1
:100C20008093D1049093D204A093D304B093D404BE
:100C3000C091E404D091E504C230D10509F4FBC0B1
:100C400008F05FC0209709F476C0C130D10509F4DF
:100C500091C01092E5041092E40410928B0110925E
:100C60008A011092890110928801109287011092D6
:100C700086018FEF9FEF90938D0180938C011092EE
:100C80008301A6C040918A0150918B01892BF9F410
:100C900090E080E0842B952B90938B0180938A01C8
:100CA000C90196958795909387018093860120913D
:100CB0008C0130918D012823392361E0232B09F425
:100CC00060E060938201892B09F47FCF4FCFC90187
:100CD000E1CF80918A010E9459028FCF8091E40474
:100CE0009091E504049741F4C0918C0180918D01AD
:100CF0000E9459028C2FEFCFC0918A0180918B0105
:100D0000F7CFC330D10509F4BFC0249709F0A1CFB4
:100D10008091E604843009F45BC18F3009F48AC104
:100D2000823009F4ACC108F0A4C1813009F091CF40
:100D30008093D0048ECF80918A0190918B01909303
:100D4000E6048093E7041092EF041092EE0481E031
:100D500090E09093E5048093E40410928B0110924C
:100D60008A0183E090E0909389018093880180E07C
:100D700090E826C00E9497049093E9048093E804C9
:100D80001092EB041092EA042091E604223089F1DB
:100D9000243009F06EC0892B09F46BC082E090E02A
:100DA0009093E5048093E40410928B0110928A01E1
:100DB00081E090E0909389018093880180E890E041
:100DC000909387018093860110928D0110928C017F
:100DD000809186019091870120918C0130918D0145
:100DE0008223932361E0892B09F460E06093820100
:100DF000BDCE22E030E03093E5042093E40410926D
:100E00008B0110928A01D0938901C093880120E858
:100E100030E0309387012093860110928D0110926B
:100E20008C018530910510F084E090E09093E90406
:100E30008093E804CDCF80918A012091EE04309117
:100E4000EF04820F932F911D9093EF048093EE0493
:100E50008091EA049091EB0401969093EB048093C7
:100E6000EA042091E8043091E9048217930708F41A
:100E700095CF83E090E09093E5048093E404109292
:100E80008B0110928A016FCF0E9497049093ED041A
:100E90008093EC042091E6043091E8044091E90449
:100EA0008091E704820F9927991F6091EE04709159
:100EB000EF04860F971F042F10E0800F911F830F00
:100EC000911D9093EF048093EE048091F004909133
:100ED000F104243009F461C028F5213009F442C03E
:100EE000223009F453C084E090E09093E5048093AD
:100EF000E4048091F0049091F10410928B0110921F
:100F00008A0122E030E0309389012093880120E0BB
:100F100030E8309387012093860190938D01809370
:100F20008C0156CF2830F1F12F30E9F62091F404EE
:100F30003091F50412161306C4F52150310930938F
:100F4000F5042093F404232B71F6877F9093F1042A
:100F50008093F0042091F2043091F30412161306EA
:100F600014F1C1CF26E030E03093F7042093F6046B
:100F70001092F5041092F4041092F3041092F2040B
:100F8000897F9093F1048093F004ADCF84E190E0E9
:100F90009093F3048093F204A6CFD093F504C0930A
:100FA000F404A1CF86708660ECCF2091F2043091DA
:100FB000F304121613060CF096CF2150310930932A
:100FC000F3042093F204232B09F08DCF8D7FD9CF2A
:100FD0008091F6049091F7041816190684F4209174
:100FE000F0043091F10401979093F7048093F60494
:100FF000892B29F4277F3093F1042093F00480910A
:10100000F0049091F104837F9093F1048093F004B5
:101010002091E8043091E9042115310529F4846018
:101020009093F1048093F00481E0232B61F180938D
:10103000E0040FCE8091F0049091F1049C01277F91
:101040003093F1042093F0042091F4043091F504DE
:10105000232B59F42091F2043091F304232B29F42B
:10106000837F9093F1048093F00481E08093E30404
:10107000F0CD883059F08F3009F0EBCDF6CF81E01C
:101080008093DF04E6CD8093E104E3CD81E080939B
:10109000E204DFCD1F920F920FB60F9211242F930F
:1010A0003F938F939F93AF93BF9380912B04909125
:1010B0002C04A0912D04B0912E0430912A0423E039
:1010C000230F2D3758F50196A11DB11D20932A0439
:1010D00080932B0490932C04A0932D04B0932E04A2
:1010E00080912F0490913004A0913104B09132048A
:1010F0000196A11DB11D80932F0490933004A093FD
:101100003104B0933204BF91AF919F918F913F9181
:101110002F910F900FBE0F901F90189526E8230F68
:101120000296A11DB11DD2CF1F920F920FB60F9242
:1011300011242F933F934F935F936F937F938F93DC
:101140009F93AF93BF93EF93FF93E0910201F091D0
:1011500003010995FF91EF91BF91AF919F918F91FD
:101160007F916F915F914F913F912F910F900FBEA3
:101170000F901F9018951F920F920FB60F92112487
:101180002F933F934F935F936F937F938F939F938F
:10119000AF93BF93EF93FF93E0910001F0910101B2
:1011A0000995FF91EF91BF91AF919F918F917F91A1
:1011B0006F915F914F913F912F910F900FBE0F90C4
:1011C0001F9018951F920F920FB60F9211242F9314
:1011D0003F934F935F936F937F938F939F93AF93BF
:1011E000BF93EF93FF9383E394E00E94C103FF91C9
:1011F000EF91BF91AF919F918F917F916F915F918F
:101200004F913F912F910F900FBE0F901F90189507
:101210001F920F920FB60F9211242F938F939F93CB
:10122000EF93FF93E0914304F09144048081E091B7
:101230004904F0914A0482FD1BC0908180914C04C6
:101240008F5F8F7320914D04821741F0E0914C0421
:10125000F0E0ED5CFB4F958F80934C04FF91EF9194
:101260009F918F912F910F900FBE0F901F90189507
:101270008081F4CF3FB7F89480912F04909130048F
:10128000A0913104B091320426B5A89B05C02F3F30
:1012900019F00196A11DB11D3FBFBA2FA92F982F9C
:1012A0008827BC01CD01620F711D811D911D42E097
:1012B000660F771F881F991F4A95D1F70895CF931E
:1012C000DF93CDB7DEB761970FB6F894DEBF0FBEE0
:1012D000CDBF789484B5826084BD84B5816084BDBF
:1012E00085B5826085BD85B5816085BD80916E00C4
:1012F000816080936E0010928100809181008260F5
:101300008093810080918100816080938100809131
:1013100080008160809380008091B1008460809320
:10132000B1008091B00081608093B00080917A001C
:10133000846080937A0080917A00826080937A0042
:1013400080917A00816080937A0080917A00806831
:1013500080937A001092C100E0914304F09144041C
:1013600082E08083E0913F04F09140041082E0919C
:101370004104F091420480E1808310924B04E0919B
:101380004704F091480486E08083E0914504F091A1
:101390004604808180618083E0914504F091460499
:1013A000808188608083E0914504F09146048081CB
:1013B00080688083E0914504F091460480818F7DB0
:1013C000808361E082E00E94060362E084E00E9484
:1013D000060361E083E00E94060361E08DE00E9465
:1013E00006038AE0E4E0F1E0DE01119601900D923F
:1013F0008A95E1F79E012F5F3F4F790110E0D701F9
:101400008D917D010E943805183009F4082F1F5F67
:101410001A30A9F7013809F094C061E082E00E9417
:10142000D80260E083E00E94D8028CE791E00E943D
:101430000A058BE391E00E940A058DED90E00E9481
:101440000A0588E690E00E940A050E943A094B01CD
:101450005C0124E6C22ED12CE12CF12C0E943A0929
:10146000681979098A099B09683E734081059105CD
:10147000A8F3B1E0CB1AD108E108F108E8EE8E0E2E
:10148000E3E09E1EA11CB11CC114D104E104F104CF
:1014900029F7E0914304F091440482E08083E091D5
:1014A0003F04F09140041082E0914104F091420425
:1014B0008FEC808310924B04E0914704F091480434
:1014C00086E08083E0914504F0914604808180614C
:1014D0008083E0914504F091460480818860808398
:1014E000E0914504F0914604808180688083E0911A
:1014F0004504F091460480818F7D808383E394E0EE
:101500000E94A103181619062CF483E394E00E94AC
:101510007F03F4CF61E08DE00E94D80283E394E082
:101520000E94A10318161906CCF783E394E00E94E9
:101530007F030E943805682F83E394E00E94E30351
:10154000EDCF60E082E00E94060360E084E00E944C
:10155000060361E083E00E94060360E083E00E94EE
:10156000D80261E08DE00E94060360E08DE00E94F9
:10157000D80280E091E89093F1048093F0041092F7
:10158000F3041092F204E5EDF4E0DF011D921A95E8
:10159000E9F78AE892E09093D6048093D5048EE828
:1015A00091E09093DA048093D9040E94500485E975
:1015B00095E0909301018093000180916900836020
:1015C00080936900E89A88EB93E00E940A0589E716
:1015D00093E00E940A0588E393E00E940A0586EAE8
:1015E00092E00E940A0588E692E00E940A0585E3DF
:1015F00092E00E940A0584EF91E00E940A0585EBC3
:1016000091E00E940A058EEA91E00E940A0583E3B8
:1016100094E00E94300480E0C82E80E0D82E94EF41
:10162000492E55245394612C712CE090D704F090EE
:10163000D8048091220490912304A0912404B091B5
:101640002504892B8A2B8B2B09F4B0C0E114F104FB
:1016500009F0B1C08FB7F89480902B0490902C04BF
:10166000A0902D04B0902E048FBF4091260450917D
:1016700027046091280470912904481559056A05CA
:101680007B0508F05BC08091D1049091D204A091B9
:10169000D304B091D4040097A105B10509F44EC05C
:1016A00095018401041B150B260B370BB901A8010A
:1016B000481759076A077B0708F05CC1841B950B24
:1016C000A60BB70B8093D1049093D204A093D304BC
:1016D000B093D404892B8A2B8B2B81F50E94500464
:1016E00082E291E00E942A0583E291E00E94B9041F
:1016F00081E391E00E94B9046091F8047091F904CB
:1017000090E080E04AE00E94C60485E491E00E94F7
:10171000B9046091D5047091D60490E080E04AE06D
:101720000E94C6048FE491E00E942A0583E394E0BE
:101730000E94300460E08DE00E94D802809226046E
:1017400090922704A0922804B092290483E394E0A5
:101750000E94A103181619060CF015C183E394E04A
:101760000E947F038F33910509F408C184369105E7
:1017700069F782E691E00E94B9046091F8047091E3
:10178000F90490E080E04AE00E94C60485E491E01C
:101790000E94B9046091D5047091D60490E080E075
:1017A0004AE00E94C6048EE691E0EAC0B6E0EB167D
:1017B000F10408F44FCF81E1E0E7F1E0DE0111969A
:1017C00001900D928A95E1F710E000E0E016F10635
:1017D00009F4CBC08090220490902304A0902404AC
:1017E000B090250481149104A104B104B9F464E01B
:1017F00070E080E090E00E946904382E65E070E0BF
:1018000080E090E00E946904982F832D909321043A
:101810008093200461E08DE00E94D8022091D704DB
:101820003091D804312C2115310521F18091DD044E
:101830009091DE04E091D904F091DA04E80FF91FE9
:10184000308001966091D5047091D6040E94FC0C02
:101850009093DE048093DD04215031093093D80445
:101860002093D7044092D1045092D2046092D304C2
:101870007092D404E32DE295EF7021E030E02C0F5C
:101880003D1F2E0F311DF901608183E394E00E941A
:10189000E303E32DEF7081E090E08C0F9D1F8E0F2E
:1018A000911DFC01608183E394E00E94E30396E0D4
:1018B00089169104A104B10490F1809120049091C3
:1018C00021040996B0E0A0E088169906AA06BB0696
:1018D00030F160E08DE00E94D80282E291E00E9447
:1018E0002A051092220410922304109224041092CC
:1018F000250480911C0490911D04A0911E04B091B8
:101900001F040196A11DB11D80931C0490931D041A
:10191000A0931E04B0931F040F5F1F4F57CF60E2C8
:1019200083E394E00E94E303AFEF8A1A9A0AAA0ABB
:10193000BA0A8092220490922304A0922404B092C6
:1019400025048091180490911904A0911A04B09173
:101950001B040196A11DB11D8093180490931904D6
:10196000A0931A04B0931B04D7CF83E394E00E94A2
:10197000300470CE80E090E0DC01A4CE82E591E0FE
:101980000E942A05E3CEC114D10409F44ECE0E9470
:10199000AD03882309F449CE0E94000046CEE3E35C
:1019A000F4E01382128288EE93E0A0E0B0E084833A
:1019B0009583A683B78382E191E09183808385EC50
:1019C00090E09587848784EC90E09787868780EC09
:1019D00090E0918B808B81EC90E0938B828B82ECFA
:1019E00090E0958B848B86EC90E0978B868B118EA4
:1019F000128E138E148E0895AA1BBB1B51E107C0D3
:101A0000AA1FBB1FA617B70710F0A61BB70B881F8E
:101A1000991F5A95A9F780959095BC01CD0108951D
:101A2000A1E21A2EAA1BBB1BFD010DC0AA1FBB1FE2
:101A3000EE1FFF1FA217B307E407F50720F0A21B54
:101A4000B30BE40BF50B661F771F881F991F1A94C1
:101A500069F760957095809590959B01AC01BD01EB
:101A6000CF010895EE0FFF1F0590F491E02D09942A
:101A7000F894FFCF420342038833010000000100C5
:101A8000000000000000E303430370033004A103DF
:101A90007F0393030D0A002F2F20436F6D706C6539
:101AA0007465642000284D656D6F727920576174EC
:101AB00065726C696E653A200042206F7574206F04
:101AC000662000422900643D64656275672C203FF2
:101AD0003D68656C700077617465726C696E653A1B
:101AE0002000420030313233343536373839414204
:061AF000434445460000DE
:107E0000112484B714BE81FFF0D085E080938100F7
:107E100082E08093C00088E18093C10086E0809377
:107E2000C20080E18093C4008EE0C9D0259A86E02C
:107E300020E33CEF91E0309385002093840096BBD3
:107E4000B09BFECF1D9AA8958150A9F7CC24DD24C4
:107E500088248394B5E0AB2EA1E19A2EF3E0BF2EE7
:107E6000A2D0813461F49FD0082FAFD0023811F036
:107E7000013811F484E001C083E08DD089C08234E0
:107E800011F484E103C0853419F485E0A6D080C0E4
:107E9000853579F488D0E82EFF2485D0082F10E0AE
:107EA000102F00270E291F29000F111F8ED06801E7
:107EB0006FC0863521F484E090D080E0DECF843638
:107EC00009F040C070D06FD0082F6DD080E0C81688
:107ED00080E7D80618F4F601B7BEE895C0E0D1E017
:107EE00062D089930C17E1F7F0E0CF16F0E7DF06D8
:107EF00018F0F601B7BEE89568D007B600FCFDCFD4
:107F0000A601A0E0B1E02C9130E011968C91119780
:107F100090E0982F8827822B932B1296FA010C0160
:107F200087BEE89511244E5F5F4FF1E0A038BF0790
:107F300051F7F601A7BEE89507B600FCFDCF97BE46
:107F4000E89526C08437B1F42ED02DD0F82E2BD052
:107F50003CD0F601EF2C8F010F5F1F4F84911BD097
:107F6000EA94F801C1F70894C11CD11CFA94CF0C13
:107F7000D11C0EC0853739F428D08EE10CD085E9AC
:107F80000AD08FE07ACF813511F488E018D01DD067
:107F900080E101D065CF982F8091C00085FFFCCF94
:107FA0009093C60008958091C00087FFFCCF809118
:107FB000C00084FD01C0A8958091C6000895E0E648
:107FC000F0E098E1908380830895EDDF803219F02E
:107FD00088E0F5DFFFCF84E1DECF1F93182FE3DFCA
:107FE0001150E9F7F2DF1F91089580E0E8DFEE27F6
:047FF000FF270994CA
:027FFE00040479
:00000001FF
