:020000040000FA
:100000000C9462000C94C3060C949C060C948A0019
:100010000C948A000C948A000C948A000C948A0038
:100020000C948A000C948A000C948A000C948A0028
:100030000C948A000C948A000C948A000C948A0018
:100040000C9452060C948A000C9420060C94FA0529
:100050000C948A000C948A000C948A000C948A00F8
:100060000C948A000C948A000000000023002600F3
:10007000290000000000240027002A0000000000E2
:10008000250028002B0004040404040404040202D4
:100090000202020203030303030301020408102007
:1000A0004080010204081020010204081020000012
:1000B0000008000201000003040700000000000027
:1000C00000009B0911241FBECFEFD8E0DEBFCDBFDB
:1000D00013E0A0E0B1E0ECE0F4E102C005900D9285
:1000E000AA3CB107D9F727E0AAECB3E001C01D9202
:1000F000A234B207E1F710E0C2E6D0E004C02197D5
:10010000FE010E94FE09C136D107C9F70E94EA0626
:100110000C94040A0C94000040911F075091200792
:1001200020911D0730911E074217530728F5E091D3
:100130002107F09122072091230730912407E20F35
:10014000F31F80838091230790912407019660918B
:100150001D0770911E070E94C80990932407809381
:10016000230780911F079091200701969093200705
:1001700080931F0781E0089580E00895AF92BF92B9
:10018000CF92DF92EF92FF920F931F93CF93DF9363
:100190006C017B018B01040F151FEB015E01AE1892
:1001A000BF08C017D10759F06991D601ED91FC91B4
:1001B0000190F081E02DC6010995892B79F7C501E1
:1001C000DF91CF911F910F91FF90EF90DF90CF9033
:1001D000BF90AF900895FC01538D448D252F30E0E2
:1001E000842F90E0821B930B541710F0CF96089544
:1001F00001970895FC01918D828D981761F0A28D71
:10020000AE0FBF2FB11D5D968C91928D9F5F9F7336
:10021000928F90E008958FEF9FEF0895FC01918DEC
:10022000828D981731F0828DE80FF11D858D90E059
:1002300008958FEF9FEF0895FC01918D228D892FF6
:1002400090E0805C9F4F821B91098F7399270895DE
:100250008BE796E00E941C0121E0892B09F420E045
:10026000822F089580E090E0892B29F00E942801D8
:1002700081110C9400000895FC01A48DA80FB92FE2
:10028000B11DA35ABF4F2C91848D90E001968F73BE
:100290009927848FA689B7892C93A089B1898C91DD
:1002A000837080648C93938D848D981306C002882C
:1002B000F389E02D80818F7D80830895EF92FF92F6
:1002C0000F931F93CF93DF93EC0181E0888F9B8D79
:1002D0008C8D98131AC0E889F989808185FF15C033
:1002E0009FB7F894EE89FF896083E889F989808156
:1002F0008370806480839FBF81E090E0DF91CF9125
:100300001F910F91FF90EF900895F62E0B8D10E046
:100310000F5F1F4F0F731127E02E8C8D8E110CC0B5
:100320000FB607FCFACFE889F989808185FFF5CF00
:10033000CE010E943C01F1CFEB8DEC0FFD2FF11DA2
:10034000E35AFF4FF0829FB7F8940B8FEA89FB893D
:1003500080818062CFCFCF93DF93EC01888D88239B
:10036000B9F0AA89BB89E889F9898C9185FD03C018
:10037000808186FD0DC00FB607FCF7CF8C9185FFFD
:10038000F2CF808185FFEDCFCE010E943C01E9CF05
:10039000DF91CF910895833081F028F4813099F076
:1003A0008230A9F008958730A9F08830C9F08430F0
:1003B000B1F4809180008F7D03C0809180008F77A1
:1003C00080938000089584B58F7784BD089584B5A7
:1003D0008F7DFBCF8091B0008F778093B000089520
:1003E0008091B0008F7DF9CF1F93CF93DF93282F9B
:1003F00030E0F901E255FF4F8491F901E656FF4FD5
:10040000D491F901EA57FF4FC491CC23A9F0162FDC
:1004100081110E94CB01EC2FF0E0EE0FFF1FE4589A
:10042000FF4FA591B4918FB7F894EC91111108C0CA
:10043000D095DE23DC938FBFDF91CF911F9108957C
:10044000DE2BF8CFCF93DF9390E0FC01E656FF4F11
:1004500024918A579F4FFC0184918823D1F090E02A
:10046000880F991FFC01EE58FF4FA591B491FC0134
:10047000E458FF4FC591D49161110EC09FB7F89415
:100480008C91E22FE0958E238C932881E223E883E0
:100490009FBFDF91CF9108958FB7F894EC91E22B35
:1004A000EC938FBFF6CF0895EAECF3E0118211864A
:1004B000108613861286108215821482E8E1F7E016
:1004C00080A191A1882791A380A31086178214860A
:1004D00013861686158681E008950F931F93009169
:1004E0001F07109120070115110519F130E020E0D8
:1004F0000617170728073907E0F0209125073091E4
:100500002607620F731F811D911D20911D073091D9
:100510001E0750E040E00E94DC0920912107309145
:100520002207C901860F971FFC0180811F910F913F
:10053000089580E0FBCF8091D0039091D103823069
:10054000910559F08330910569F0019799F48091F4
:10055000D2039091D303992708958091D20390916B
:10056000D30308958091D2039091D30398278927CC
:100570009827089590E080E00895FC010190002004
:10058000E9F73197AF01481B590BBC018BE796E0A7
:100590000C94BE008F929F92AF92BF920F931F93C5
:1005A000CF93DF93CDB7DEB7A1970FB6F894DEBF38
:1005B0000FBECDBF19A2423008F44AE08E010F5D94
:1005C0001F4F842E912CB12CA12CA50194010E94C7
:1005D000DC09E62FB901CA01EA30F4F4E05DD80184
:1005E000EE938D01232B242B252B79F790E080E0CF
:1005F000109719F0CD010E94BD02A1960FB6F89494
:10060000DEBF0FBECDBFDF91CF911F910F91BF9085
:10061000AF909F908F900895E95CE1CFCF93DF93E7
:100620000E94BD02EC0186E191E00E94BD028C0FA8
:100630009D1FDF91CF9108950F931F93CF93DF9369
:10064000E2EBF0E08491EEE9F0E00491EAE8F0E01A
:100650001491112379F181110E94CB01E12FF0E077
:10066000EE0FFF1FE859FF4FA591B491EC91E023E5
:1006700031E020E009F430E0832F922F2091CB036A
:1006800021113BC02091CC033091CD03822B932BC1
:10069000833328E8920789F0880F991F9093CD0340
:1006A0008093CC0360E083E0DF91CF911F910F91A5
:1006B0000C94F40190E080E0E1CF10922D071092AD
:1006C0002C071092CD031092CC0381E08093CB03D2
:1006D0001092D3031092D20382E090E09093D10362
:1006E0008093D00380E090E89093CF038093CE0373
:1006F0001092D5031092D403D5CF2091CE03309120
:10070000CF032115310509F05EC080912C0790912F
:100710002D07892B31F488E80E948C0083E30E9426
:100720008C008091D0039091D1038130910509F420
:1007300071C018F0049708F472C080911F0790915F
:10074000200720914007309141072817390720F4EE
:10075000909341078093400784EF91E0A0E0B0E0E0
:100760008093190790931A07A0931B07B0931C0757
:1007700000912C0710912D070230110509F4FDC0DE
:1007800008F060C00115110509F477C001301105AA
:1007900009F492C010922D0710922C071092D303E7
:1007A0001092D2031092D1031092D0031092CF0373
:1007B0001092CE038FEF9FEF9093D5038093D403D5
:1007C0001092CB03A7C04091D2035091D303892B41
:1007D000F9F490E080E0842B952B9093D3038093E1
:1007E000D203C901969587959093CF038093CE034A
:1007F0002091D4033091D5032823392361E0232BA2
:1008000009F460E06093CA03892B09F47ECF4BCFD3
:10081000C901E1CF8091D2030E948C008ECF8091DC
:100820002C0790912D07049741F41091D4038091E7
:10083000D5030E948C00812FEFCF1091D2038091BD
:10084000D303F7CF0330110509F4C0C004301105FC
:1008500009F0A0CF80912E07843009F466C18F3053
:1008600009F498C1823009F4BDC108F0B2C18130E9
:1008700009F090CF809318078DCF8091D20390918B
:10088000D30390932E0780932F071092370710926F
:10089000360781E090E090932D0780932C0710920B
:1008A000D3031092D20383E090E09093D10380931E
:1008B000D00380E090E826C00E949B02909331070D
:1008C00080933007109233071092320720912E0741
:1008D000223089F1243009F06EC0892B09F46BC0F5
:1008E00082E090E090932D0780932C071092D30321
:1008F0001092D20381E090E09093D1038093D003D3
:1009000080E890E09093CF038093CE031092D503BC
:100910001092D4038091CE039091CF032091D40301
:100920003091D5038223932361E0892B09F460E0A1
:100930006093CA03B8CE22E030E030932D072093B5
:100940002C071092D3031092D2031093D10300937B
:10095000D00320E830E03093CF032093CE031092F1
:10096000D5031092D4038530910510F084E090E017
:100970009093310780933007CDCF8091D20320919F
:10098000360730913707820F932F911D90933707C9
:1009900080933607809132079091330701969093A8
:1009A0003307809332072091300730913107821747
:1009B000930708F495CF83E090E090932D07809300
:1009C0002C071092D3031092D2036FCF0E949B0288
:1009D000909335078093340720912E07309130078C
:1009E0004091310780912F07820F9927991F6091BD
:1009F000360770913707860F971FC42F40E0D42F1A
:100A0000C80FD91FC30FD11DD0933707C093360726
:100A10008091380790913907243009F467C028F590
:100A2000213009F448C0223009F459C084E090E034
:100A300090932D0780932C07809138079091390768
:100A40001092D3031092D20322E030E03093D1030E
:100A50002093D00320E030E83093CF032093CE03DF
:100A60009093D5038093D40355CF283009F443C025
:100A70002F30E1F620913C0730913D0780913807F7
:100A80009091390712161306ECF521503109309375
:100A90003D0720933C07232B49F6877F9093390726
:100AA0008093380720913A0730913B0786601216F1
:100AB000130684F0BBCF26E030E030933F0720934D
:100AC0003E0710923D0710923C0710923B07109290
:100AD0003A07897F9093390780933807A7CF84E13D
:100AE00090E090933B0780933A07A0CF10933D0787
:100AF00000933C079BCF8670866090933907809364
:100B00003807B8CF20913A0730913B0712161306E9
:100B10000CF08CCF2150310930933B0720933A07DA
:100B2000232B09F083CF8D7FD5CF80913E07909105
:100B30003F071816190684F42091380730913907B9
:100B4000019790933F0780933E07892B29F4277FD5
:100B500030933907209338078091380790913907EF
:100B6000837F909339078093380720913007309125
:100B70003107232B29F48460909339078093380739
:100B80008091300790913107892B81F181E080932A
:100B9000280700CE80913807909139079C01277F64
:100BA000309339072093380720913C0730913D0757
:100BB000232B59F420913A0730913B07232B29F43A
:100BC000837F909339078093380781E080932B07C8
:100BD000E1CD8430A9F2883009F0DCCD81E080934A
:100BE0002A07D8CD81E080932707D4CD81E0809378
:100BF0002907D0CD1F920F920FB60F9211242F9379
:100C00003F934F935F936F937F938F939F93AF9394
:100C1000BF93EF93FF938BE796E00E943C01FF9117
:100C2000EF91BF91AF919F918F917F916F915F9164
:100C30004F913F912F910F900FBE0F901F901895DD
:100C40001F920F920FB60F9211242F938F939F93A1
:100C5000EF93FF93E0918B06F0918C068081E091F9
:100C60009106F091920682FD1BC0908180919406BE
:100C70008F5F8F7320919506821741F0E091940663
:100C8000F0E0E558F94F958F80939406FF91EF912E
:100C90009F918F912F910F900FBE0F901F901895DD
:100CA0008081F4CF1F920F920FB60F9211242F93D1
:100CB0003F938F939F93AF93BF93809173069091CF
:100CC0007406A0917506B09176063091DA0323E0A0
:100CD000230F2D3758F50196A11DB11D2093DA037E
:100CE0008093730690937406A0937506B09376066E
:100CF0008091D6039091D703A091D803B091D903E6
:100D00000196A11DB11D8093D6039093D703A093A4
:100D1000D803B093D903BF91AF919F918F913F9129
:100D20002F910F900FBE0F901F90189526E8230F5C
:100D30000296A11DB11DD2CF1F920F920FB60F9236
:100D400011242F933F934F935F936F937F938F93D0
:100D50009F93AF93BF93EF93FF93E0910201F091C4
:100D600003010995FF91EF91BF91AF919F918F91F1
:100D70007F916F915F914F913F912F910F900FBE97
:100D80000F901F9018951F920F920FB60F9211247B
:100D90002F933F934F935F936F937F938F939F9383
:100DA000AF93BF93EF93FF93E0910001F0910101A6
:100DB0000995FF91EF91BF91AF919F918F917F9195
:100DC0006F915F914F913F912F910F900FBE0F90B8
:100DD0001F901895CF93DF93CDB7DEB761970FB60D
:100DE000F894DEBF0FBECDBF789484B5826084BD19
:100DF00084B5816084BD85B5826085BD85B581601F
:100E000085BD80916E00816080936E00109281009C
:100E10008091810082608093810080918100816057
:100E20008093810080918000816080938000809118
:100E3000B10084608093B1008091B00081608093A4
:100E4000B00080917A00846080937A0080917A006B
:100E5000826080937A0080917A00816080937A002A
:100E600080917A00806880937A001092C100E091AE
:100E70008B06F0918C0682E08083E0918706F091EA
:100E800088061082E0918906F0918A0680E18083CD
:100E900010929306E0918F06F091900686E0808391
:100EA000E0918D06F0918E06808180618083E091D3
:100EB0008D06F0918E06808188608083E0918D069A
:100EC000F0918E06808180688083E0918D06F0919C
:100ED0008E0680818F7D808360E082E00E94220206
:100EE00060E084E00E94220261E083E00E9422022E
:100EF00060E083E00E94F40161E08DE00E94220244
:100F000060E08DE00E94F40180E091E89093390761
:100F10008093380710923B0710923A078AE0EDE180
:100F2000F7E0DF011D928A95E9F78AE892E0909355
:100F30001E0780931D078BED93E09093220780930B
:100F400021070E9454028CE193E090930101809369
:100F5000000180916900836080936900E89A89E1CB
:100F600091E00E940E0382E691E00E940E0381EA66
:100F700091E00E940E0382EE91E00E940E0384E74E
:100F800092E00E940E0382EB92E00E940E0385EE37
:100F900092E00E940E0386E293E00E940E0385E633
:100FA00093E00E940E038BE796E00E94AB0180E085
:100FB000C82E80E0D82E94EF492E55245394612CEE
:100FC000712CE0901F07F090200780916F069091A0
:100FD0007006A0917106B0917206892B8A2B8B2B1B
:100FE00009F4B0C0E114F10409F0B1C08FB7F8946E
:100FF0008090730690907406A0907506B090760667
:101000008FBF409177065091780660917906709174
:101010007A06481559056A057B0508F05BC0809182
:10102000190790911A07A0911B07B0911C07009710
:10103000A105B10509F44EC095018401041B150BEF
:10104000260B370BB901A801481759076A077B0718
:1010500008F05CC1841B950BA60BB70B8093190796
:1010600090931A07A0931B07B0931C07892B8A2B18
:101070008B2B81F50E94540288E191E00E940E03BF
:101080008CE693E00E94BD028AE793E00E94BD02D5
:10109000609140077091410790E080E04AE00E9433
:1010A000CA028EE893E00E94BD0260911D07709114
:1010B0001E0790E080E04AE00E94CA0288E993E0BF
:1010C0000E940E038BE796E00E94AB0160E08DE08A
:1010D0000E94F4018092770690927806A092790699
:1010E000B0927A068BE796E00E941C01181619064A
:1010F0000CF015C18BE796E00E94FA008F33910542
:1011000009F408C18436910569F78BEA93E00E94DF
:10111000BD02609140077091410790E080E04AE095
:101120000E94CA028EE893E00E94BD0260911D07F2
:1011300070911E0790E080E04AE00E94CA0287EBAF
:1011400093E0EAC0B6E0EB16F10408F44FCF81E17A
:10115000E9EBF3E0DE01119601900D928A95E1F73B
:1011600010E000E00E151F0509F4CBC080906F065B
:1011700090907006A0907106B09072068114910450
:10118000A104B104B9F464E070E080E090E00E9452
:101190006D02382E65E070E080E090E00E946D0204
:1011A000982F832D90936E0680936D0661E08DE0FD
:1011B0000E94F40120911F0730912007312C211546
:1011C000310521F18091250790912607E0912107B3
:1011D000F0912207E80FF91F3080019660911D07FA
:1011E00070911E070E94C8099093260780932507D7
:1011F000215031093093200720931F07409219078F
:1012000050921A0760921B0770921C07E32DE2951B
:10121000EF7021E030E02C0F3D1F2E0F311DF90142
:1012200060818BE796E00E945E01E32DEF7081E024
:1012300090E08C0F9D1F8E0F911DFC0160818BE74C
:1012400096E00E945E0196E089169104A104B10423
:1012500090F180916D0690916E060996B0E0A0E045
:1012600088169906AA06BB0630F160E08DE00E9460
:10127000F40188E191E00E940E0310926F06109233
:101280007006109271061092720680916906909114
:101290006A06A0916B06B0916C060196A11DB11D66
:1012A0008093690690936A06A0936B06B0936C06D0
:1012B0000F5F1F4F57CF60E28BE796E00E945E0101
:1012C000AFEF8A1A9A0AAA0ABA0A80926F06909217
:1012D0007006A0927106B092720680916506909198
:1012E0006606A0916706B09168060196A11DB11D22
:1012F0008093650690936606A0936706B093680690
:10130000D7CF8BE796E00E94AB0170CE80E090E0F3
:10131000DC01A4CE8BE993E00E940E03E3CEC1145E
:10132000D10409F44ECE0E942801882309F449CE45
:101330000E94000046CEEBE7F6E01382128288EEB0
:1013400093E0A0E0B0E084839583A683B78388E030
:1013500091E09183808385EC90E09587848784EC8D
:1013600090E09787868780EC90E0918B808B81EC72
:1013700090E0938B828B82EC90E0958B848B86EC53
:1013800090E0978B868B118E128E138E148E08959B
:10139000AA1BBB1B51E107C0AA1FBB1FA617B7079B
:1013A00010F0A61BB70B881F991F5A95A9F78095B7
:1013B0009095BC01CD010895A1E21A2EAA1BBB1B7A
:1013C000FD010DC0AA1FBB1FEE1FFF1FA217B30711
:1013D000E407F50720F0A21BB30BE40BF50B661F27
:1013E000771F881F991F1A9469F7609570958095EB
:1013F00090959B01AC01BD01CF010895EE0FFF1F39
:101400000590F491E02D0994F894FFCF5302530214
:10141000000000005E01BE00EB00AB011C01FA0001
:101420000E010D0A002F2F2047414D45424F5920F4
:101430005052494E544552205061636B65742043AD
:101440006170747572652056332E322E3120284318
:101450006F707972696768742028432920323032AE
:101460003220427269616E204B68757529002F2FFA
:10147000204E6F74653A2045616368206279746517
:101480002069732066726F6D206561636820474232
:1014900050207061636B65742069732066726F6D94
:1014A000207468652067616D65626F79002F2F2059
:1014B00020202020202065786365707420666F727C
:1014C00020746865206C6173742074776F20627972
:1014D0007465732077686963682069732066726F2A
:1014E0006D20746865207072696E746572002F2FAC
:1014F000204A5320526177205061636B6574204409
:1015000065636F6465723A2068747470733A2F2F44
:101510006D6F666F73796E652E6769746875622E7C
:10152000696F2F61726475696E6F2D67616D656299
:101530006F792D7072696E7465722D656D756C6151
:10154000746F722F47616D65426F795072696E7466
:1015500065724465636F6465724A532F67616D6598
:10156000626F795F7072696E7465725F6A735F72C1
:1015700061775F6465636F6465722E68746D6C007B
:101580002F2F202D2D2D20474E552047454E4552BB
:10159000414C205055424C4943204C4943454E5301
:1015A000452056657273696F6E20332C20323920C6
:1015B0004A756E652032303037202D2D2D002F2FAB
:1015C00020546869732070726F6772616D20636F59
:1015D0006D65732077697468204142534F4C5554B0
:1015E000454C59204E4F2057415252414E54593B81
:1015F000002F2F2054686973206973206672656517
:1016000020736F6674776172652C20616E64207937
:101610006F75206172652077656C636F6D652074EE
:101620006F2072656469737472696275746520698C
:1016300074002F2F20756E6465722063657274616B
:10164000696E20636F6E646974696F6E732E2052C9
:101650006566657220746F204C4943454E534520A2
:1016600066696C6520666F722064657461696C2EB2
:10167000002F2F202D2D2D002F2F20436F6D706CEC
:10168000657465642000284D656D6F72792057611F
:101690007465726C696E653A200042206F75742023
:1016A0006F662000422900643D64656275672C20E6
:1016B0003F3D68656C700077617465726C696E653A
:1016C0003A20004200303132333435363738394130
:0616D000424344454600C0
:107800000C94343C0C94513C0C94513C0C94513CE1
:107810000C94513C0C94513C0C94513C0C94513CB4
:107820000C94513C0C94513C0C94513C0C94513CA4
:107830000C94513C0C94513C0C94513C0C94513C94
:107840000C94513C0C94513C0C94513C0C94513C84
:107850000C94513C0C94513C0C94513C0C94513C74
:107860000C94513C0C94513C11241FBECFEFD8E036
:10787000DEBFCDBF11E0A0E0B1E0ECE9FFE702C060
:1078800005900D92A230B107D9F712E0A2E0B1E065
:1078900001C01D92AD30B107E1F70E942D3D0C945F
:1078A000CC3F0C94003C982F959595959595959582
:1078B000905D8F708A307CF0282F295A8091C0000B
:1078C00085FFFCCF9093C6008091C00085FFFCCF60
:1078D0002093C6000895282F205DF0CF982F809127
:1078E000C00085FFFCCF9093C6000895EF92FF92F1
:1078F0000F931F93EE24FF2487018091C00087FD22
:1079000017C00894E11CF11C011D111D81E4E8164B
:1079100082E4F8068FE0080780E0180770F3E09132
:107920000401F091050109958091C00087FFE9CF1E
:107930008091C6001F910F91FF90EF9008950E94D3
:10794000763C982F8091C00085FFFCCF9093C600B5
:1079500091362CF490330CF09053892F089597555D
:10796000892F08951F930E949F3C182F0E949F3CCF
:107970001295107F810F1F9108951F93182F882350
:1079800021F00E94763C1150E1F71F9108951F935A
:10799000182F0E94763C803249F0809103018F5F5E
:1079A000809303018530C1F01F9108958091C0003C
:1079B00085FFFCCF84E18093C6008091C00085FFE5
:1079C000FCCF1093C6008091C00085FFFCCF80E102
:1079D0008093C6001F910895E0910401F091050184
:1079E00009951F9108950E94763C803241F0809164
:1079F00003018F5F80930301853081F008958091AA
:107A0000C00085FFFCCF84E18093C6008091C00058
:107A100085FFFCCF80E18093C6000895E0910401CA
:107A2000F09105010995089540E951E08823A1F0FE
:107A30002D9A28EE33E0FA013197F1F721503040CA
:107A4000D1F72D9828EE33E0FA013197F1F7215064
:107A50003040D1F7815061F708953F924F925F9285
:107A60006F927F928F929F92AF92BF92CF92DF924E
:107A7000EF92FF920F931F93CF93DF93000080E16B
:107A80008093C4001092C50088E18093C10086E015
:107A90008093C2005098589A259A81E00E94143D24
:107AA00024E1F22E9EE1E92E85E9D82E0FE0C02ECA
:107AB00010E1B12EAA24A394B1E49B2EA6E58A2E50
:107AC000F2E57F2EE0E26E2E79E4572E63E5462E36
:107AD00050E5352E0E94763C8033B1F18133B9F107
:107AE000803409F46FC0813409F476C0823409F41B
:107AF00085C0853409F488C0803531F1823521F1A3
:107B0000813511F1853509F485C0863509F48DC0BC
:107B1000843609F496C0843709F403C1853709F423
:107B200072C1863709F466C0809103018F5F80932C
:107B30000301853079F6E0910401F0910501099582
:107B40000E94763C803351F60E94F33CC3CF0E94E2
:107B5000763C803249F78091C00085FFFCCFF092DF
:107B6000C6008091C00085FFFCCF9092C600809136
:107B7000C00085FFFCCF8092C6008091C00085FFC9
:107B8000FCCF7092C6008091C00085FFFCCF609250
:107B9000C6008091C00085FFFCCF5092C600809146
:107BA000C00085FFFCCF4092C6008091C00085FFD9
:107BB000FCCF3092C6008091C00085FFFCCFB09210
:107BC000C60088CF0E94763C863808F4BDCF0E945C
:107BD000763C0E94F33C7ECF0E94763C803809F4CC
:107BE0009CC0813809F40BC1823809F43CC1883942
:107BF00009F48FC080E00E94C73C6CCF84E10E94F2
:107C0000BD3C0E94F33C66CF85E00E94BD3C0E94D3
:107C1000F33C60CF0E94763C809306010E94763C44
:107C2000809307010E94F33C55CF0E94763C80333D
:107C300009F41DC183E00E94BD3C80E00E94C73C66
:107C400049CF0E94763C809309020E94763C809343
:107C5000080280910C028E7F80930C020E94763C79
:107C6000853409F415C18091080290910902892B8D
:107C700089F000E010E00E94763CF801E85FFE4FDA
:107C800080830F5F1F4F80910802909109020817AF
:107C9000190788F30E94763C803209F045CF809125
:107CA0000C0280FF01C16091060170910701660F0F
:107CB000771F7093070160930601A0910802B091AD
:107CC00009021097C9F0E8E0F1E09B01AD014E0F09
:107CD0005F1FF999FECF32BD21BD819180BDFA9A17
:107CE000F99A2F5F3F4FE417F50799F76A0F7B1F4B
:107CF00070930701609306018091C00085FFFCCF5F
:107D0000F092C6008091C00085FFFCCFB092C60003
:107D1000E1CE83E00E94C73CDDCE82E00E94C73CFA
:107D2000D9CE0E94763C809309020E94763C8093D3
:107D300008028091060190910701880F991F909386
:107D40000701809306010E94763C853409F4A6C0A1
:107D500080910C028E7F80930C020E94763C8032D0
:107D600009F0B8CE8091C00085FFFCCFF092C6002C
:107D7000609108027091090261157105B9F140E046
:107D800050E080910C02A82FA170B82FB27011C0E2
:107D9000BB2309F45CC0E0910601F0910701319624
:107DA000F0930701E09306014F5F5F4F46175707B7
:107DB000E8F4AA2369F3F999FECF209106013091E6
:107DC000070132BD21BDF89A90B58091C00085FFB2
:107DD000FCCF9093C6002F5F3F4F30930701209355
:107DE00006014F5F5F4F4617570718F38091C00099
:107DF00085FDE5CE8091C00085FFF8CFE0CE81E023
:107E00000E94C73C67CE0E94763C803209F08CCE3F
:107E10008091C00085FFFCCFF092C6008091C00029
:107E200085FFFCCFE092C6008091C00085FFFCCFAB
:107E3000D092C6008091C00085FFFCCFC092C600E2
:107E40008091C00085FFFCCFB092C60043CEE09188
:107E50000601F091070194918091C00085FFFCCF4D
:107E60009093C6009CCF80E10E94C73C33CE0E9415
:107E7000763C0E94763C182F0E94763C112309F430
:107E800083C0113009F484C08FE00E94C73C22CE29
:107E900080910C02816080930C02E5CE80910C02EF
:107EA000816080930C0259CF809107018823880F4D
:107EB000880B8A2180930B02809106019091070123
:107EC000880F991F90930701809306018091080203
:107ED00080FF09C080910802909109020196909359
:107EE000090280930802F894F999FECF1127E091D6
:107EF0000601F0910701C8E0D1E08091080290915D
:107F00000902103091F40091570001700130D9F34B
:107F100003E000935700E89500915700017001308D
:107F2000D9F301E100935700E89509901990009169
:107F3000570001700130D9F301E000935700E89534
:107F40001395103498F011270091570001700130FB
:107F5000D9F305E000935700E895009157000170B0
:107F60000130D9F301E100935700E895329602976A
:107F700009F0C7CF103011F00296E5CF112480919F
:107F8000C00085FFB9CEBCCE8EE10E94C73CA2CD19
:0E7F900085E90E94C73C9ECDF894FFCF80008B
:00000001FF
