:100000000C9462000C94BE060C9497060C948A0023
:100010000C948A000C948A000C948A000C948A0038
:100020000C948A000C948A000C948A000C948A0028
:100030000C948A000C948A000C948A000C948A0018
:100040000C944D060C948A000C941B060C94F50538
:100050000C948A000C948A000C948A000C948A00F8
:100060000C948A000C948A000000000023002600F3
:10007000290000000000240027002A0000000000E2
:10008000250028002B0004040404040404040202D4
:100090000202020203030303030301020408102007
:1000A0004080010204081020010204081020000012
:1000B0000008000201000003040700000000000027
:1000C00000008E0911241FBECFEFD8E0DEBFCDBFE8
:1000D00013E0A0E0B1E0E2EFF3E102C005900D9281
:1000E000A83BB107D9F727E0A8EBB3E001C01D9208
:1000F000A033B207E1F710E0C2E6D0E004C02197D8
:10010000FE010E94F109C136D107C9F70E94E50638
:100110000C94F7090C94000040910D0750910E07C4
:1001200020910B0730910C074217530728F5E091F7
:100130000F07F09110072091110730911207E20F7D
:10014000F31F8083809111079091120701966091AF
:100150000B0770910C070E94BB09909312078093C4
:10016000110780910D0790910E07019690930E074D
:1001700080930D0781E0089580E00895AF92BF92CB
:10018000CF92DF92EF92FF920F931F93CF93DF9363
:100190006C017B018B01040F151FEB015E01AE1892
:1001A000BF08C017D10759F06991D601ED91FC91B4
:1001B0000190F081E02DC6010995892B79F7C501E1
:1001C000DF91CF911F910F91FF90EF90DF90CF9033
:1001D000BF90AF900895FC01538D448D252F30E0E2
:1001E000842F90E0821B930B541710F0CF96089544
:1001F00001970895FC01918D828D981761F0A28D71
:10020000AE0FBF2FB11D5D968C91928D9F5F9F7336
:10021000928F90E008958FEF9FEF0895FC01918DEC
:10022000828D981731F0828DE80FF11D858D90E059
:1002300008958FEF9FEF0895FC01918D228D892FF6
:1002400090E0805C9F4F821B91098F7399270895DE
:1002500089E696E00E941C0121E0892B09F420E048
:10026000822F089580E090E0892B29F00E942801D8
:1002700081110C9400000895FC01A48DA80FB92FE2
:10028000B11DA35ABF4F2C91848D90E001968F73BE
:100290009927848FA689B7892C93A089B1898C91DD
:1002A000837080648C93938D848D981306C002882C
:1002B000F389E02D80818F7D80830895EF92FF92F6
:1002C0000F931F93CF93DF93EC0181E0888F9B8D79
:1002D0008C8D98131AC0E889F989808185FF15C033
:1002E0009FB7F894EE89FF896083E889F989808156
:1002F0008370806480839FBF81E090E0DF91CF9125
:100300001F910F91FF90EF900895F62E0B8D10E046
:100310000F5F1F4F0F731127E02E8C8D8E110CC0B5
:100320000FB607FCFACFE889F989808185FFF5CF00
:10033000CE010E943C01F1CFEB8DEC0FFD2FF11DA2
:10034000E35AFF4FF0829FB7F8940B8FEA89FB893D
:1003500080818062CFCFCF93DF93EC01888D88239B
:10036000B9F0AA89BB89E889F9898C9185FD03C018
:10037000808186FD0DC00FB607FCF7CF8C9185FFFD
:10038000F2CF808185FFEDCFCE010E943C01E9CF05
:10039000DF91CF910895833081F028F4813099F076
:1003A0008230A9F008958730A9F08830C9F08430F0
:1003B000B1F4809180008F7D03C0809180008F77A1
:1003C00080938000089584B58F7784BD089584B5A7
:1003D0008F7DFBCF8091B0008F778093B000089520
:1003E0008091B0008F7DF9CF1F93CF93DF93282F9B
:1003F00030E0F901E255FF4F8491F901E656FF4FD5
:10040000D491F901EA57FF4FC491CC23A9F0162FDC
:1004100081110E94CB01EC2FF0E0EE0FFF1FE4589A
:10042000FF4FA591B4918FB7F894EC91111108C0CA
:10043000D095DE23DC938FBFDF91CF911F9108957C
:10044000DE2BF8CFCF93DF9390E0FC01E656FF4F11
:1004500024918A579F4FFC0184918823D1F090E02A
:10046000880F991FFC01EE58FF4FA591B491FC0134
:10047000E458FF4FC591D49161110EC09FB7F89415
:100480008C91E22FE0958E238C932881E223E883E0
:100490009FBFDF91CF9108958FB7F894EC91E22B35
:1004A000EC938FBFF6CF0895E8EBF3E0118211864D
:1004B000108613861286108215821482E6E0F7E019
:1004C00080A191A1882791A380A31086178214860A
:1004D00013861686158681E008950F931F93009169
:1004E0000D0710910E070115110519F130E020E0FC
:1004F0000617170728073907E0F0209113073091F6
:100500001407620F731F811D911D20910B073091FD
:100510000C0750E040E00E94CF0920910F07309176
:100520001007C901860F971FFC0180811F910F9151
:10053000089580E0FBCF8091BE039091BF0382308D
:10054000910559F08330910569F0019799F48091F4
:10055000C0039091C103992708958091C0039091A1
:10056000C10308958091C0039091C1039827892702
:100570009827089590E080E00895FC010190002004
:10058000E9F73197AF01481B590BBC0189E696E0AA
:100590000C94BE008F929F92AF92BF920F931F93C5
:1005A000CF93DF93CDB7DEB7A1970FB6F894DEBF38
:1005B0000FBECDBF19A2423008F44AE08E010F5D94
:1005C0001F4F842E912CB12CA12CA50194010E94C7
:1005D000CF09E62FB901CA01EA30F4F4E05DD80191
:1005E000EE938D01232B242B252B79F790E080E0CF
:1005F000109719F0CD010E94BD02A1960FB6F89494
:10060000DEBF0FBECDBFDF91CF911F910F91BF9085
:10061000AF909F908F900895E95CE1CFCF93DF93E7
:100620000E94BD02EC0186E191E00E94BD028C0FA8
:100630009D1FDF91CF9108950F931F93CF93DF9369
:10064000E2EBF0E08491EEE9F0E00491EAE8F0E01A
:100650001491112379F181110E94CB01E12FF0E077
:10066000EE0FFF1FE859FF4FA591B491EC91E023E5
:1006700031E020E009F430E0832F922F2091B9037C
:1006800021113BC02091BA033091BB03822B932BE5
:10069000833328E8920789F0880F991F9093BB0352
:1006A0008093BA0360E083E0DF91CF911F910F91B7
:1006B0000C94F40190E080E0E1CF10921B071092BF
:1006C0001A071092BB031092BA0381E08093B9031A
:1006D0001092C1031092C00382E090E09093BF0398
:1006E0008093BE0380E090E89093BD038093BC03A9
:1006F0001092C3031092C203D5CF2091BC03309156
:10070000BD032115310509F05EC080911A07909153
:100710001B07892B31F488E80E948C0083E30E9438
:100720008C008091BE039091BF038130910509F444
:1007300071C018F0049708F472C080910D07909171
:100740000E0720912E0730912F072817390720F424
:1007500090932F0780932E0784EF91E0A0E0B0E004
:100760008093070790930807A0930907B0930A079F
:1007700000911A0710911B070230110509F4FDC002
:1007800008F060C00115110509F477C001301105AA
:1007900009F492C010921B0710921A071092C1031D
:1007A0001092C0031092BF031092BE031092BD03BB
:1007B0001092BC038FEF9FEF9093C3038093C2030B
:1007C0001092B903A7C04091C0035091C103892B77
:1007D000F9F490E080E0842B952B9093C1038093F3
:1007E000C003C901969587959093BD038093BC0380
:1007F0002091C2033091C3032823392361E0232BC6
:1008000009F460E06093B803892B09F47ECF4BCFE5
:10081000C901E1CF8091C0030E948C008ECF8091EE
:100820001A0790911B07049741F41091C20380911D
:10083000C3030E948C00812FEFCF1091C0038091E1
:10084000C103F7CF0330110509F4C0C0043011050E
:1008500009F0A0CF80911C07843009F469C18F3062
:1008600009F499C1823009F4B5C108F0ADC18130F5
:1008700009F090CF809306078DCF8091C0039091AF
:10088000C10390931C0780931D07109225071092B7
:10089000240781E090E090931B0780931A07109241
:1008A000C1031092C00383E090E09093BF03809354
:1008B000BE0380E090E826C00E949B0290931F0731
:1008C00080931E07109221071092200720911C0789
:1008D000223089F1243009F06EC0892B09F46BC0F5
:1008E00082E090E090931B0780931A071092C10357
:1008F0001092C00381E090E09093BF038093BE0309
:1009000080E890E09093BD038093BC031092C303F2
:100910001092C2038091BC039091BD032091C20349
:100920003091C3038223932361E0892B09F460E0B3
:100930006093B803B8CE22E030E030931B072093D9
:100940001A071092C1031092C0031093BF030093C3
:10095000BE0320E830E03093BD032093BC03109227
:10096000C3031092C2038530910510F084E090E03B
:1009700090931F0780931E07CDCF8091C0032091D5
:10098000240730912507820F932F911D90932507FF
:1009900080932407809120079091210701969093DE
:1009A00021078093200720911E0730911F0782178F
:1009B000930708F495CF83E090E090931B07809312
:1009C0001A071092C1031092C0036FCF0E949B02BE
:1009D000909323078093220780911C0790911E0714
:1009E00040911F0720911D07280F3327331F609167
:1009F000240770912507260F371FC42F40E0D42FFE
:100A0000C20FD31FC90FD11DD0932507C093240750
:100A10002091260730912707843009F46BC028F510
:100A2000813009F44EC0823009F45FC084E090E068
:100A300090931B0780931A078091260790912707B0
:100A40001092C1031092C00322E030E03093BF0344
:100A50002093BE0320E030E83093BD032093BC0315
:100A60009093C3038093C20355CF883009F447C0E5
:100A70008F30E1F620912A0730912B0780912607CD
:100A800090912707121613060CF03FC02150310930
:100A900030932B0720932A07232B41F6877F9093CF
:100AA0002707809326072091280730912907866021
:100AB000121613060CF0BACF9093270780932607DF
:100AC000B5CF86E090E090932D0780932C0710928D
:100AD0002B0710922A0710922907109228072B7FC4
:100AE0003093270720932607A1CF1093290700935F
:100AF00028079CCF10932B0700932A0797CF222714
:100B00003093270720932607B5CF209128073091EF
:100B10002907121613060CF089CF215031093093A2
:100B2000290720932807232B09F080CF8D7FC4CF7E
:100B300080912C0790912D071816190684F42091A6
:100B4000260730912707019790932D0780932C0754
:100B5000892B29F42460309327072093260780915E
:100B60002607909127079C01286030932707209340
:100B7000260720911E0730911F072115310529F402
:100B8000877F909327078093260781E0232B31F1FD
:100B900080931607FFCD80912A0790912B07892B10
:100BA00079F48091280790912907892B49F4809145
:100BB0002607909127078B7F90932707809326071E
:100BC00081E080931907E6CD883059F08F3009F025
:100BD000E1CDF6CF81E080931507DCCD8093170738
:100BE000D9CD81E080931807D5CD1F920F920FB613
:100BF0000F9211242F933F934F935F936F937F93A3
:100C00008F939F93AF93BF93EF93FF9389E696E003
:100C10000E943C01FF91EF91BF91AF919F918F9105
:100C20007F916F915F914F913F912F910F900FBEE8
:100C30000F901F9018951F920F920FB60F921124CC
:100C40002F938F939F93EF93FF93E0917906F09109
:100C50007A068081E0917F06F091800682FD1BC0BC
:100C60009081809182068F5F8F7320918306821717
:100C700041F0E0918206F0E0E759F94F958F8093BB
:100C80008206FF91EF919F918F912F910F900FBE50
:100C90000F901F9018958081F4CF1F920F920FB67E
:100CA0000F9211242F933F938F939F93AF93BF93F2
:100CB0008091610690916206A0916306B0916406EE
:100CC0003091C80323E0230F2D3758F50196A11D5D
:100CD000B11D2093C8038093610690936206A09390
:100CE0006306B09364068091C4039091C503A091FC
:100CF000C603B091C7030196A11DB11D8093C40323
:100D00009093C503A093C603B093C703BF91AF915F
:100D10009F918F913F912F910F900FBE0F901F9039
:100D2000189526E8230F0296A11DB11DD2CF1F9260
:100D30000F920FB60F9211242F933F934F935F930F
:100D40006F937F938F939F93AF93BF93EF93FF9393
:100D5000E0910201F09103010995FF91EF91BF919C
:100D6000AF919F918F917F916F915F914F913F9143
:100D70002F910F900FBE0F901F9018951F920F92FA
:100D80000FB60F9211242F933F934F935F936F935E
:100D90007F938F939F93AF93BF93EF93FF93E091D4
:100DA0000001F09101010995FF91EF91BF91AF9181
:100DB0009F918F917F916F915F914F913F912F9173
:100DC0000F900FBE0F901F901895CF93DF93CDB764
:100DD000DEB761970FB6F894DEBF0FBECDBF789433
:100DE00084B5826084BD84B5816084BD85B5826030
:100DF00085BD85B5816085BD80916E0081608093E1
:100E00006E00109281008091810082608093810049
:100E10008091810081608093810080918000816059
:100E2000809380008091B10084608093B1008091B4
:100E3000B00081608093B00080917A0084608093DC
:100E40007A0080917A00826080937A0080917A00A3
:100E5000816080937A0080917A00806880937A0024
:100E60001092C100E0917906F0917A0682E08083C9
:100E7000E0917506F09176061082E0917706F09188
:100E8000780680E1808310928106E0917D06F091E2
:100E90007E0686E08083E0917B06F0917C0680816F
:100EA00080618083E0917B06F0917C068081886080
:100EB0008083E0917B06F0917C068081806880834E
:100EC000E0917B06F0917C0680818F7D808360E0DD
:100ED00082E00E94220260E084E00E94220261E03F
:100EE00083E00E94220260E083E00E94F40161E05E
:100EF0008DE00E94220260E08DE00E94F40180E01B
:100F000091E8909327078093260710922907109263
:100F100028078AE0EBE0F7E0DF011D928A95E9F708
:100F20008AE892E090930C0780930B0789EC93E09A
:100F30009093100780930F070E9454028CE193E076
:100F400090930101809300018091690083608093F8
:100F50006900E89A89E191E00E940E0380E591E042
:100F60000E940E038FE891E00E940E0380ED91E055
:100F70000E940E0382E692E00E940E0380EA92E055
:100F80000E940E0383ED92E00E940E0384E193E041
:100F90000E940E0383E593E00E940E0380E0C82EBA
:100FA00080E0D82E94EF492E55245394612C712C57
:100FB000E0900D07F0900E0780915D0690915E061F
:100FC000A0915F06B0916006892B8A2B8B2B09F4C8
:100FD00085C0E114F10409F086C08FB7F8948090C1
:100FE000610690906206A0906306B09064068FBF81
:100FF000409165065091660660916706709168069B
:10100000481559056A057B0588F5809118078823DE
:1010100009F443C10E94540288E191E00E940E034A
:101020008AE593E00E94BD0288E693E00E94BD023B
:1010300060912E0770912F0790E080E04AE00E94B7
:10104000CA028CE793E00E94BD0260910B07709189
:101050000C0790E080E04AE00E94CA0286E893E034
:101060000E940E0360E08DE00E94F401809265060C
:1010700090926606A0926706B092680689E696E0AE
:101080000E941C01181619060CF03CC189E696E076
:101090000E94FA008F33910509F42FC1843691051F
:1010A00069F789E993E00E94BD0260912E07709173
:1010B0002F0790E080E04AE00E94CA028CE793E0AC
:1010C0000E94BD0260910B0770910C0790E080E0D8
:1010D0004AE00E94CA0285EA93E011C1B6E0EB162D
:1010E000F10408F47ACF81E1E7EAF3E0DE0111963A
:1010F00001900D928A95E1F710E000E0E016F1060C
:1011000009F46BCF80905D0690905E06A0905F061C
:10111000B090600681149104A104B104B9F464E0B4
:1011200070E080E090E00E946D02382E65E070E093
:1011300080E090E00E946D02982F832D90935C06D2
:1011400080935B0661E08DE00E94F40120910D0721
:1011500030910E07312C2115310521F180911307B3
:1011600090911407E0910F07F0911007E80FF91F15
:101170003080019660910B0770910C070E94BB09AB
:1011800090931407809313072150310930930E0771
:1011900020930D07409207075092080760920907B5
:1011A00070920A07E32DE295EF7021E030E02C0FFA
:1011B0003D1F2E0F311DF901608189E696E00E94E6
:1011C0005E01E32DEF7081E090E08C0F9D1F8E0F8C
:1011D000911DFC01608189E696E00E945E0196E027
:1011E00089169104A104B10490F180915B0690915D
:1011F0005C060996B0E0A0E088169906AA06BB0630
:1012000030F160E08DE00E94F40188E191E00E94FD
:101210000E0310925D0610925E0610925F06109209
:1012200060068091570690915806A0915906B0919A
:101230005A060196A11DB11D80935706909358063A
:10124000A0935906B0935A060F5F1F4F57CF60E225
:1012500089E696E00E945E01AFEF8A1A9A0AAA0A0E
:10126000BA0A80925D0690925E06A0925F06B092E6
:1012700060068091530690915406A0915506B09156
:1012800056060196A11DB11D8093530690935406F6
:10129000A0935506B0935606D7CF8091070790913B
:1012A0000807A0910907B0910A070097A105B105A9
:1012B00009F4DCCE95018401041B150B260B370BBA
:1012C000B901A801481759076A077B0790F4841BE6
:1012D000950BA60BB70B8093070790930807A09375
:1012E0000907B0930A07892B8A2B8B2B09F0BECEF6
:1012F00091CE80E090E0DC01EECF89E893E00E949F
:101300000E03BCCEC114D10409F452CE0E942801B0
:10131000882309F44DCE0E9400004ACEE9E6F6E0AB
:101320001382128288EE93E0A0E0B0E0848395837C
:10133000A683B78388E091E09183808385EC90E079
:101340009587848784EC90E09787868780EC90E08F
:10135000918B808B81EC90E0938B828B82EC90E080
:10136000958B848B86EC90E0978B868B118E128EFA
:10137000138E148E0895AA1BBB1B51E107C0AA1F30
:10138000BB1FA617B70710F0A61BB70B881F991F26
:101390005A95A9F780959095BC01CD010895A1E2D9
:1013A0001A2EAA1BBB1BFD010DC0AA1FBB1FEE1FDF
:1013B000FF1FA217B307E407F50720F0A21BB30B2A
:1013C000E40BF50B661F771F881F991F1A9469F7A6
:1013D00060957095809590959B01AC01BD01CF0102
:1013E0000895EE0FFF1F0590F491E02D0994F894F5
:0213F000FFCF2D
:1013F20053025302000000005E01BE00EB00AB018D
:101402001C01FA000E010D0A002F2F2047414D4505
:10141200424F59205052494E544552205061636BFD
:1014220065742043617074757265205633202842BA
:101432007269616E204B6875752032303230290036
:101442002F2F204E6F74653A2045616368206279C0
:1014520074652069732066726F6D20656163682010
:10146200474250207061636B657420697320667215
:101472006F6D207468652067616D65626F79002FFA
:101482002F2020202020202065786365707420663C
:101492006F7220746865206C6173742074776F209A
:1014A200627974657320776869636820697320665E
:1014B200726F6D20746865207072696E7465720057
:1014C2002F2F204A5320526177205061636B65743D
:1014D200204465636F6465723A2068747470733A6D
:1014E2002F2F6D6F666F73796E652E6769746875DD
:1014F200622E696F2F61726475696E6F2D67616DFF
:1015020065626F792D7072696E7465722D656D7585
:101512006C61746F722F47616D65426F79507269A9
:101522006E7465724465636F6465724A532F6761B6
:101532006D65626F795F7072696E7465725F6A73EE
:101542005F7261775F6465636F6465722E68746D44
:101552006C002F2F202D2D2D20474E552047454E14
:101562004552414C205055424C4943204C49434539
:101572004E53452056657273696F6E20332C2032AC
:1015820039204A756E652032303037202D2D2D00DE
:101592002F2F20546869732070726F6772616D20FB
:1015A200636F6D65732077697468204142534F4CB5
:1015B2005554454C59204E4F2057415252414E549A
:1015C200593B002F2F20546869732069732066727B
:1015D200656520736F6674776172652C20616E6435
:1015E20020796F75206172652077656C636F6D6518
:1015F20020746F20726564697374726962757465B0
:10160200206974002F2F20756E64657220636572E5
:101612007461696E20636F6E646974696F6E732E94
:1016220020526566657220746F204C4943454E53C3
:10163200452066696C6520666F7220646574616915
:101642006C2E002F2F202D2D2D002F2F2054696D51
:101652006564204F75742000284D656D6F72792086
:1016620057617465726C696E653A200042206F752D
:1016720074206F662000422900643D6465627567CC
:101682002C203F3D68656C700077617465726C69EF
:101692006E653A2000420030313233343536373805
:0816A200394142434445460072
:00000001FF
