:100000000C9462000C94C3060C949C060C948A0019
:100010000C948A000C948A000C948A000C948A0038
:100020000C948A000C948A000C948A000C948A0028
:100030000C948A000C948A000C948A000C948A0018
:100040000C9452060C948A000C9420060C94FA0529
:100050000C948A000C948A000C948A000C948A00F8
:100060000C948A000C948A000000000023002600F3
:10007000290000000000240027002A0000000000E2
:10008000250028002B0004040404040404040202D4
:100090000202020203030303030301020408102007
:1000A0004080010204081020010204081020000012
:1000B0000008000201000003040700000000000027
:1000C00000009B0911241FBECFEFD8E0DEBFCDBFDB
:1000D00013E0A0E0B1E0ECE0F4E102C005900D9285
:1000E000A83CB107D9F727E0A8ECB3E001C01D9206
:1000F000A034B207E1F710E0C2E6D0E004C02197D7
:10010000FE010E94FE09C136D107C9F70E94EA0626
:100110000C94040A0C94000040911D0750911E0796
:1001200020911B0730911C074217530728F5E091D7
:100130001F07F09120072091210730912207E20F3D
:10014000F31F80838091210790912207019660918F
:100150001B0770911C070E94C80990932207809387
:10016000210780911D0790911E07019690931E070D
:1001700080931D0781E0089580E00895AF92BF92BB
:10018000CF92DF92EF92FF920F931F93CF93DF9363
:100190006C017B018B01040F151FEB015E01AE1892
:1001A000BF08C017D10759F06991D601ED91FC91B4
:1001B0000190F081E02DC6010995892B79F7C501E1
:1001C000DF91CF911F910F91FF90EF90DF90CF9033
:1001D000BF90AF900895FC01538D448D252F30E0E2
:1001E000842F90E0821B930B541710F0CF96089544
:1001F00001970895FC01918D828D981761F0A28D71
:10020000AE0FBF2FB11D5D968C91928D9F5F9F7336
:10021000928F90E008958FEF9FEF0895FC01918DEC
:10022000828D981731F0828DE80FF11D858D90E059
:1002300008958FEF9FEF0895FC01918D228D892FF6
:1002400090E0805C9F4F821B91098F7399270895DE
:1002500089E796E00E941C0121E0892B09F420E047
:10026000822F089580E090E0892B29F00E942801D8
:1002700081110C9400000895FC01A48DA80FB92FE2
:10028000B11DA35ABF4F2C91848D90E001968F73BE
:100290009927848FA689B7892C93A089B1898C91DD
:1002A000837080648C93938D848D981306C002882C
:1002B000F389E02D80818F7D80830895EF92FF92F6
:1002C0000F931F93CF93DF93EC0181E0888F9B8D79
:1002D0008C8D98131AC0E889F989808185FF15C033
:1002E0009FB7F894EE89FF896083E889F989808156
:1002F0008370806480839FBF81E090E0DF91CF9125
:100300001F910F91FF90EF900895F62E0B8D10E046
:100310000F5F1F4F0F731127E02E8C8D8E110CC0B5
:100320000FB607FCFACFE889F989808185FFF5CF00
:10033000CE010E943C01F1CFEB8DEC0FFD2FF11DA2
:10034000E35AFF4FF0829FB7F8940B8FEA89FB893D
:1003500080818062CFCFCF93DF93EC01888D88239B
:10036000B9F0AA89BB89E889F9898C9185FD03C018
:10037000808186FD0DC00FB607FCF7CF8C9185FFFD
:10038000F2CF808185FFEDCFCE010E943C01E9CF05
:10039000DF91CF910895833081F028F4813099F076
:1003A0008230A9F008958730A9F08830C9F08430F0
:1003B000B1F4809180008F7D03C0809180008F77A1
:1003C00080938000089584B58F7784BD089584B5A7
:1003D0008F7DFBCF8091B0008F778093B000089520
:1003E0008091B0008F7DF9CF1F93CF93DF93282F9B
:1003F00030E0F901E255FF4F8491F901E656FF4FD5
:10040000D491F901EA57FF4FC491CC23A9F0162FDC
:1004100081110E94CB01EC2FF0E0EE0FFF1FE4589A
:10042000FF4FA591B4918FB7F894EC91111108C0CA
:10043000D095DE23DC938FBFDF91CF911F9108957C
:10044000DE2BF8CFCF93DF9390E0FC01E656FF4F11
:1004500024918A579F4FFC0184918823D1F090E02A
:10046000880F991FFC01EE58FF4FA591B491FC0134
:10047000E458FF4FC591D49161110EC09FB7F89415
:100480008C91E22FE0958E238C932881E223E883E0
:100490009FBFDF91CF9108958FB7F894EC91E22B35
:1004A000EC938FBFF6CF0895E8ECF3E0118211864C
:1004B000108613861286108215821482E6E1F7E018
:1004C00080A191A1882791A380A31086178214860A
:1004D00013861686158681E008950F931F93009169
:1004E0001D0710911E070115110519F130E020E0DC
:1004F0000617170728073907E0F0209123073091E6
:100500002407620F731F811D911D20911B073091DD
:100510001C0750E040E00E94DC0920911F07309149
:100520002007C901860F971FFC0180811F910F9141
:10053000089580E0FBCF8091CE039091CF0382306D
:10054000910559F08330910569F0019799F48091F4
:10055000D0039091D103992708958091D003909171
:10056000D10308958091D0039091D10398278927D2
:100570009827089590E080E00895FC010190002004
:10058000E9F73197AF01481B590BBC0189E796E0A9
:100590000C94BE008F929F92AF92BF920F931F93C5
:1005A000CF93DF93CDB7DEB7A1970FB6F894DEBF38
:1005B0000FBECDBF19A2423008F44AE08E010F5D94
:1005C0001F4F842E912CB12CA12CA50194010E94C7
:1005D000DC09E62FB901CA01EA30F4F4E05DD80184
:1005E000EE938D01232B242B252B79F790E080E0CF
:1005F000109719F0CD010E94BD02A1960FB6F89494
:10060000DEBF0FBECDBFDF91CF911F910F91BF9085
:10061000AF909F908F900895E95CE1CFCF93DF93E7
:100620000E94BD02EC0186E191E00E94BD028C0FA8
:100630009D1FDF91CF9108950F931F93CF93DF9369
:10064000E2EBF0E08491EEE9F0E00491EAE8F0E01A
:100650001491112379F181110E94CB01E12FF0E077
:10066000EE0FFF1FE859FF4FA591B491EC91E023E5
:1006700031E020E009F430E0832F922F2091C9036C
:1006800021113BC02091CA033091CB03822B932BC5
:10069000833328E8920789F0880F991F9093CB0342
:1006A0008093CA0360E083E0DF91CF911F910F91A7
:1006B0000C94F40190E080E0E1CF10922B071092AF
:1006C0002A071092CB031092CA0381E08093C903DA
:1006D0001092D1031092D00382E090E09093CF0368
:1006E0008093CE0380E090E89093CD038093CC0379
:1006F0001092D3031092D203D5CF2091CC03309126
:10070000CD032115310509F05EC080912A07909133
:100710002B07892B31F488E80E948C0083E30E9428
:100720008C008091CE039091CF038130910509F424
:1007300071C018F0049708F472C080911D07909161
:100740001E0720913E0730913F072817390720F4F4
:1007500090933F0780933E0784EF91E0A0E0B0E0E4
:100760008093170790931807A0931907B0931A075F
:1007700000912A0710912B070230110509F4FDC0E2
:1007800008F060C00115110509F477C001301105AA
:1007900009F492C010922B0710922A071092D103ED
:1007A0001092D0031092CF031092CE031092CD037B
:1007B0001092CC038FEF9FEF9093D3038093D203DB
:1007C0001092C903A7C04091D0035091D103892B47
:1007D000F9F490E080E0842B952B9093D1038093E3
:1007E000D003C901969587959093CD038093CC0350
:1007F0002091D2033091D3032823392361E0232BA6
:1008000009F460E06093C803892B09F47ECF4BCFD5
:10081000C901E1CF8091D0030E948C008ECF8091DE
:100820002A0790912B07049741F41091D2038091ED
:10083000D3030E948C00812FEFCF1091D0038091C1
:10084000D103F7CF0330110509F4C0C004301105FE
:1008500009F0A0CF80912C07843009F466C18F3055
:1008600009F498C1823009F4BDC108F0B2C18130E9
:1008700009F090CF809316078DCF8091D00390918F
:10088000D10390932C0780932D0710923507109277
:10089000340781E090E090932B0780932A07109211
:1008A000D1031092D00383E090E09093CF03809324
:1008B000CE0380E090E826C00E949B0290932F0711
:1008C00080932E07109231071092300720912C0749
:1008D000223089F1243009F06EC0892B09F46BC0F5
:1008E00082E090E090932B0780932A071092D10327
:1008F0001092D00381E090E09093CF038093CE03D9
:1009000080E890E09093CD038093CC031092D303C2
:100910001092D2038091CC039091CD032091D20309
:100920003091D3038223932361E0892B09F460E0A3
:100930006093C803B8CE22E030E030932B072093B9
:100940002A071092D1031092D0031093CF03009383
:10095000CE0320E830E03093CD032093CC031092F7
:10096000D3031092D2038530910510F084E090E01B
:1009700090932F0780932E07CDCF8091D0032091A5
:10098000340730913507820F932F911D90933507CF
:1009900080933407809130079091310701969093AE
:1009A00031078093300720912E0730912F0782174F
:1009B000930708F495CF83E090E090932B07809302
:1009C0002A071092D1031092D0036FCF0E949B028E
:1009D000909333078093320720912C0730912E0794
:1009E00040912F0780912D07820F9927991F6091C1
:1009F000340770913507860F971FC42F40E0D42F1E
:100A0000C80FD91FC30FD11DD0933507C09334072A
:100A10008091360790913707243009F467C028F594
:100A2000213009F448C0223009F459C084E090E034
:100A300090932B0780932A07809136079091370770
:100A40001092D1031092D00322E030E03093CF0314
:100A50002093CE0320E030E83093CD032093CC03E5
:100A60009093D3038093D20355CF283009F443C029
:100A70002F30E1F620913A0730913B0780913607FD
:100A80009091370712161306ECF521503109309377
:100A90003B0720933A07232B49F6877F909337072C
:100AA00080933607209138073091390786601216F7
:100AB000130684F0BBCF26E030E030933D0720934F
:100AC0003C0710923B0710923A0710923907109298
:100AD0003807897F9093370780933607A7CF84E143
:100AE00090E09093390780933807A0CF10933B078D
:100AF00000933A079BCF8670866090933707809368
:100B00003607B8CF209138073091390712161306EF
:100B10000CF08CCF215031093093390720933807DE
:100B2000232B09F083CF8D7FD5CF80913C07909107
:100B30003D071816190684F42091360730913707BF
:100B4000019790933D0780933C07892B29F4277FD9
:100B500030933707209336078091360790913707F7
:100B6000837F909337078093360720912E0730912B
:100B70002F07232B29F4846090933707809336073F
:100B800080912E0790912F07892B81F181E080932E
:100B9000260700CE80913607909137079C01277F6A
:100BA000309337072093360720913A0730913B075F
:100BB000232B59F42091380730913907232B29F43E
:100BC000837F909337078093360781E080932907CE
:100BD000E1CD8430A9F2883009F0DCCD81E080934A
:100BE0002807D8CD81E080932507D4CD81E080937C
:100BF0002707D0CD1F920F920FB60F9211242F937B
:100C00003F934F935F936F937F938F939F93AF9394
:100C1000BF93EF93FF9389E796E00E943C01FF9119
:100C2000EF91BF91AF919F918F917F916F915F9164
:100C30004F913F912F910F900FBE0F901F901895DD
:100C40001F920F920FB60F9211242F938F939F93A1
:100C5000EF93FF93E0918906F0918A068081E091FD
:100C60008F06F091900682FD1BC0908180919206C4
:100C70008F5F8F7320919306821741F0E091920667
:100C8000F0E0E758F94F958F80939206FF91EF912E
:100C90009F918F912F910F900FBE0F901F901895DD
:100CA0008081F4CF1F920F920FB60F9211242F93D1
:100CB0003F938F939F93AF93BF93809171069091D1
:100CC0007206A0917306B09174063091D80323E0A8
:100CD000230F2D3758F50196A11DB11D2093D80380
:100CE0008093710690937206A0937306B093740676
:100CF0008091D4039091D503A091D603B091D703EE
:100D00000196A11DB11D8093D4039093D503A093A8
:100D1000D603B093D703BF91AF919F918F913F912D
:100D20002F910F900FBE0F901F90189526E8230F5C
:100D30000296A11DB11DD2CF1F920F920FB60F9236
:100D400011242F933F934F935F936F937F938F93D0
:100D50009F93AF93BF93EF93FF93E0910201F091C4
:100D600003010995FF91EF91BF91AF919F918F91F1
:100D70007F916F915F914F913F912F910F900FBE97
:100D80000F901F9018951F920F920FB60F9211247B
:100D90002F933F934F935F936F937F938F939F9383
:100DA000AF93BF93EF93FF93E0910001F0910101A6
:100DB0000995FF91EF91BF91AF919F918F917F9195
:100DC0006F915F914F913F912F910F900FBE0F90B8
:100DD0001F901895CF93DF93CDB7DEB761970FB60D
:100DE000F894DEBF0FBECDBF789484B5826084BD19
:100DF00084B5816084BD85B5826085BD85B581601F
:100E000085BD80916E00816080936E00109281009C
:100E10008091810082608093810080918100816057
:100E20008093810080918000816080938000809118
:100E3000B10084608093B1008091B00081608093A4
:100E4000B00080917A00846080937A0080917A006B
:100E5000826080937A0080917A00816080937A002A
:100E600080917A00806880937A001092C100E091AE
:100E70008906F0918A0682E08083E0918506F091F0
:100E800086061082E0918706F091880680E18083D3
:100E900010929106E0918D06F0918E0686E0808397
:100EA000E0918B06F0918C06808180618083E091D7
:100EB0008B06F0918C06808188608083E0918B06A0
:100EC000F0918C06808180688083E0918B06F091A0
:100ED0008C0680818F7D808360E082E00E94220208
:100EE00060E084E00E94220261E083E00E9422022E
:100EF00060E083E00E94F40161E08DE00E94220244
:100F000060E08DE00E94F40180E091E89093370763
:100F10008093360710923907109238078AE0EBE188
:100F2000F7E0DF011D928A95E9F78AE892E0909355
:100F30001C0780931B0789ED93E090932007809313
:100F40001F070E9454028CE193E09093010180936B
:100F5000000180916900836080936900E89A89E1CB
:100F600091E00E940E0380E691E00E940E038FE95B
:100F700091E00E940E0380EE91E00E940E0382E752
:100F800092E00E940E0380EB92E00E940E0383EE3B
:100F900092E00E940E0384E293E00E940E0383E637
:100FA00093E00E940E0389E796E00E94AB0180E087
:100FB000C82E80E0D82E94EF492E55245394612CEE
:100FC000712CE0901D07F0901E0780916D069091A6
:100FD0006E06A0916F06B0917006892B8A2B8B2B21
:100FE00009F4B0C0E114F10409F0B1C08FB7F8946E
:100FF0008090710690907206A0907306B09074066F
:101000008FBF40917506509176066091770670917A
:101010007806481559056A057B0508F05BC0809184
:10102000170790911807A0911907B0911A07009718
:10103000A105B10509F44EC095018401041B150BEF
:10104000260B370BB901A801481759076A077B0718
:1010500008F05CC1841B950BA60BB70B8093170798
:1010600090931807A0931907B0931A07892B8A2B1E
:101070008B2B81F50E94540288E191E00E940E03BF
:101080008AE693E00E94BD0288E793E00E94BD02D9
:1010900060913E0770913F0790E080E04AE00E9437
:1010A000CA028CE893E00E94BD0260911B07709118
:1010B0001C0790E080E04AE00E94CA0286E993E0C3
:1010C0000E940E0389E796E00E94AB0160E08DE08C
:1010D0000E94F4018092750690927606A09277069F
:1010E000B092780689E796E00E941C01181619064E
:1010F0000CF015C189E796E00E94FA008F33910544
:1011000009F408C18436910569F789EA93E00E94E1
:10111000BD0260913E0770913F0790E080E04AE099
:101120000E94CA028CE893E00E94BD0260911B07F6
:1011300070911C0790E080E04AE00E94CA0285EBB3
:1011400093E0EAC0B6E0EB16F10408F44FCF81E17A
:10115000E7EBF3E0DE01119601900D928A95E1F73D
:1011600010E000E00E151F0509F4CBC080906D065D
:1011700090906E06A0906F06B09070068114910456
:10118000A104B104B9F464E070E080E090E00E9452
:101190006D02382E65E070E080E090E00E946D0204
:1011A000982F832D90936C0680936B0661E08DE001
:1011B0000E94F40120911D0730911E07312C21154A
:1011C000310521F18091230790912407E0911F07B9
:1011D000F0912007E80FF91F3080019660911B07FE
:1011E00070911C070E94C8099093240780932307DD
:1011F0002150310930931E0720931D074092170795
:10120000509218076092190770921A07E32DE29521
:10121000EF7021E030E02C0F3D1F2E0F311DF90142
:10122000608189E796E00E945E01E32DEF7081E026
:1012300090E08C0F9D1F8E0F911DFC01608189E74E
:1012400096E00E945E0196E089169104A104B10423
:1012500090F180916B0690916C060996B0E0A0E049
:1012600088169906AA06BB0630F160E08DE00E9460
:10127000F40188E191E00E940E0310926D06109235
:101280006E0610926F06109270068091670690911C
:101290006806A0916906B0916A060196A11DB11D6C
:1012A0008093670690936806A0936906B0936A06D8
:1012B0000F5F1F4F57CF60E289E796E00E945E0103
:1012C000AFEF8A1A9A0AAA0ABA0A80926D06909219
:1012D0006E06A0926F06B0927006809163069091A0
:1012E0006406A0916506B09166060196A11DB11D28
:1012F0008093630690936406A0936506B093660698
:10130000D7CF89E796E00E94AB0170CE80E090E0F5
:10131000DC01A4CE89E993E00E940E03E3CEC11460
:10132000D10409F44ECE0E942801882309F449CE45
:101330000E94000046CEE9E7F6E01382128288EEB2
:1013400093E0A0E0B0E084839583A683B78388E030
:1013500091E09183808385EC90E09587848784EC8D
:1013600090E09787868780EC90E0918B808B81EC72
:1013700090E0938B828B82EC90E0958B848B86EC53
:1013800090E0978B868B118E128E138E148E08959B
:10139000AA1BBB1B51E107C0AA1FBB1FA617B7079B
:1013A00010F0A61BB70B881F991F5A95A9F78095B7
:1013B0009095BC01CD010895A1E21A2EAA1BBB1B7A
:1013C000FD010DC0AA1FBB1FEE1FFF1FA217B30711
:1013D000E407F50720F0A21BB30BE40BF50B661F27
:1013E000771F881F991F1A9469F7609570958095EB
:1013F00090959B01AC01BD01CF010895EE0FFF1F39
:0C1400000590F491E02D0994F894FFCFC2
:10140C0053025302000000005E01BE00EB00AB0172
:10141C001C01FA000E010D0A002F2F2047414D45EB
:10142C00424F59205052494E544552205061636BE3
:10143C00657420436170747572652056332E3220AA
:10144C0028436F70797269676874202843292032A9
:10145C0030323220427269616E204B6875752900FA
:10146C002F2F204E6F74653A204561636820627996
:10147C0074652069732066726F6D206561636820E6
:10148C00474250207061636B6574206973206672EB
:10149C006F6D207468652067616D65626F79002FD0
:1014AC002F20202020202020657863657074206612
:1014BC006F7220746865206C6173742074776F2070
:1014CC006279746573207768696368206973206634
:1014DC00726F6D20746865207072696E746572002D
:1014EC002F2F204A5320526177205061636B657413
:1014FC00204465636F6465723A2068747470733A43
:10150C002F2F6D6F666F73796E652E6769746875B2
:10151C00622E696F2F61726475696E6F2D67616DD4
:10152C0065626F792D7072696E7465722D656D755B
:10153C006C61746F722F47616D65426F795072697F
:10154C006E7465724465636F6465724A532F67618C
:10155C006D65626F795F7072696E7465725F6A73C4
:10156C005F7261775F6465636F6465722E68746D1A
:10157C006C002F2F202D2D2D20474E552047454EEA
:10158C004552414C205055424C4943204C4943450F
:10159C004E53452056657273696F6E20332C203282
:1015AC0039204A756E652032303037202D2D2D00B4
:1015BC002F2F20546869732070726F6772616D20D1
:1015CC00636F6D65732077697468204142534F4C8B
:1015DC005554454C59204E4F2057415252414E5470
:1015EC00593B002F2F205468697320697320667251
:1015FC00656520736F6674776172652C20616E640B
:10160C0020796F75206172652077656C636F6D65ED
:10161C0020746F2072656469737472696275746585
:10162C00206974002F2F20756E64657220636572BB
:10163C007461696E20636F6E646974696F6E732E6A
:10164C0020526566657220746F204C4943454E5399
:10165C00452066696C6520666F72206465746169EB
:10166C006C2E002F2F202D2D2D002F2F2054696D27
:10167C006564204F75742000284D656D6F7279205C
:10168C0057617465726C696E653A200042206F7503
:10169C0074206F662000422900643D6465627567A2
:1016AC002C203F3D68656C700077617465726C69C5
:1016BC006E653A20004200303132333435363738DB
:0816CC00394142434445460048
:00000001FF
